:020000040800F2
:10000000100400209D0100088F0B0008EF0A000873
:100010008D0B000885020008A10C000800000000FC
:10002000000000000000000000000000B30B00080A
:100030008702000800000000B10B0008B50B0008A3
:10004000B7010008B7010008B7010008B7010008B0
:10005000B7010008B7010008B7010008B7010008A0
:10006000B7010008B7010008B7010008B701000890
:10007000B7010008B7010008B7010008B701000880
:10008000B7010008B7010008B7010008B701000870
:10009000B7010008B7010008B7010008B701000860
:1000A000B7010008B7010008B7010008B701000850
:1000B000B7010008B7010008B7010008B701000840
:1000C000B7010008B7010008B7010008B701000830
:1000D000B7010008B7010008B7010008B701000820
:1000E000B7010008B7010008B7010008B701000810
:1000F000B7010008B7010008B7010008B701000800
:10010000B7010008B7010008B7010008B7010008EF
:10011000B7010008B7010008B7010008B7010008DF
:10012000B7010008B7010008B7010008B7010008CF
:10013000B7010008B7010008B7010008B7010008BF
:10014000B7010008B7010008B7010008B7010008AF
:10015000B7010008B7010008B7010008B70100089F
:10016000B7010008B7010008B7010008B70100088F
:10017000B7010008B7010008B7010008000000003F
:10018000B7010008B7010008DFF80CD000F068F8EC
:1001900000480047C10C00081004002006488047B2
:1001A00006480047FEE7FEE7FEE7FEE7FEE7FEE75C
:1001B000FEE7FEE7FEE7FEE74D0C000889010008B8
:1001C0002DE9F05F0546002092469B46884606468C
:1001D000814640241BE0284641464746224600F01F
:1001E0002FF853465A46C01A914110D3114618466B
:1001F000224600F016F82D1A67EB01084F462246FA
:100200000120002100F00DF817EB00094E41201EDF
:10021000A4F10104DFDC484631462A464346BDE8E6
:10022000F09F202A04DB203A00FA02F100207047F8
:100230009140C2F1200320FA03F319439040704724
:10024000202A04DB203A21FA02F00021704721FA2B
:1002500002F3D040C2F12002914008431946704792
:10026000064C074D06E0E06840F0010394E8070003
:1002700098471034AC42F6D3FFF78AFF1C0D0008F4
:100280003C0D0008FEE7704770B5044600F0F0F83A
:100290000546601C02D004480078044400F0E8F8E9
:1002A000401BA042FAD370BD000000202DE9F84F9A
:1002B000DFF87CB100224FF001084FF0030A4FF045
:1002C0000F090BF1040E00BF0B6808FA02F423407B
:1002D000A3426ED14D68022D01D0122D0ED1D5084A
:1002E00000EB850CDCF820505607F70E09FA07F6EC
:1002F000B5430E69BE402E43CCF820600668550019
:100300000F790AFA05FC07F0030726EA0C06AF404E
:10031000374307604E68012E05D0022E03D0112E00
:1003200001D0122E0ED18668CF6826EA0C06AF40A7
:10033000374387604668A6430C79C4F300149440A1
:1003400034434460C6688C6826EA0C06AC403443EB
:10035000C4604C68E40065D5364C256845F480459A
:100360002560246822F0030504F480440094324C94
:100370002E19D6F8084895072F0F09FA07F5AC4350
:100380002E4DA84201D1002524E02D4DA84201D1D7
:1003900001251FE02B4DA84201D102251AE02A4D6C
:1003A000A84201D1032515E0284DA84202D1042519
:1003B00010E037E0264DA84201D105250AE0254D81
:1003C000A84201D1062505E0234DA84201D1072509
:1003D00000E00825BD402543C6F80858DBF800407A
:1003E0005D464E689C43F60300D51C432C60DEF846
:1003F000004075464E689C43B60300D51C432C60F4
:100400000B4D08352C684E689C43F60200D51C4302
:100410002C60074D0C352C684E689C43B60200D505
:100420001C432C60521C102AFFF44EAFBDE8F88F1D
:10043000003C0140443802400030014000000240CE
:100440000004024000080240000C0240001002407C
:100450000014024000180240001C024042694A4059
:10046000426170470AB1816170470904FBE70000EF
:100470000148806870470000000000200248816841
:100480000278114481607047000000200B4810B5CD
:10049000016841F400710160016841F4806101600C
:1004A000016841F480710160032000F08BF80020A6
:1004B00000F006F800F024F8002010BD003C0240D7
:1004C00070B50D4D04464FF47A712878B1FBF0F009
:1004D0000A490968B1FBF0F000F0F1FA48B9102CB4
:1004E00007D200222146501E00F04CF800206C601C
:1004F00070BD012070BD0000000000200C00002035
:100500001F4808B5016841F480410160006800F4AB
:10051000804000901A48001F016841F0805101603E
:10052000006800F080500090032000F04BF800229B
:1005300011466FF00B0000F025F8002211466FF015
:100540000A0000F01FF8002211466FF0090000F0C9
:1005500019F800221146501F00F014F8002211462D
:10056000101F00F00FF800221146901E00F00AF84C
:100570000022BDE808401146501E00F003B80000FC
:1005800044380240F0B40E4B1B680C46C3F3022300
:10059000C3F10705042D00D90425191D072901D22F
:1005A000002300E0DB1E012606FA05F1491E21406A
:1005B00099409E40761E16403143F0BC00F0E8BAE8
:1005C0000CED00E0064900F0070208684FF6FF0353
:1005D000184040EA0220034A1043086070470000B8
:1005E0000CED00E00000FA052DE9F0470E4605008D
:1005F00065D0DFF81481D8F80000F7B200F00F00E2
:10060000B04207D288F80070D8F8000000F00F0060
:10061000B04254D128683D4C810712D5400703D51C
:10062000206840F4E05020602878000703D5206857
:1006300040F4604020602068A96820F0F000084382
:1006400020602878C0072DD0304968680839012813
:1006500012D0022813D0032811D009688907002975
:100660002DDA216821F0030101432160FFF700FF2B
:10067000814641F2883A0EE009688903EFE709688C
:100680008901ECE7FFF7F4FEA0EB0901514502D91F
:100690000320BDE8F0872068696800F00C00B0EB2B
:1006A000810FEFD1D8F80010404601F00F01B142A0
:1006B00007D90770006800F00F00B04201D0012098
:1006C000E7E72878400705D52068E96820F4E0507E
:1006D000084320602878000706D52068296920F49F
:1006E000604040EAC100206000F01CF82168084A20
:1006F000C1F30311515CC840064908600020FFF7B0
:10070000DFFE0020C5E70000003C02400838024040
:100710000C0D00080C000020014800687047000024
:100720000C000020154810B5006810F00C021448A9
:1007300013D01449042A0FD0082A0ED10F4C241FBD
:100740002268236802F03F025B0207D52068C0F3ED
:100750008810A0FB010106E0084610BD2168C1F326
:100760008811A1FB00010023FFF72AFD2168C1F3D6
:100770000141491C4900B0FBF1F010BD08380240AE
:100780000024F40040787D012DE9F84F050076D073
:100790002878DFF8F8B2BE4CC00749D0DBF800106B
:1007A0005846C1F38101012908D00068C0F38100D7
:1007B00002280AD1201D0068400206D52068800367
:1007C00036D568680028E2D032E06868B0F5803F2E
:1007D00010D0B0F5A02F206810D020F48030206019
:1007E000206820F4802020606868A0B1FFF740FEF8
:1007F00006460CE0206840F48030F4E740F48020A6
:100800002060F7E7FFF734FE801B642873D8206868
:100810008003F7D50CE0FFF72BFE064605E000BF8E
:10082000FFF726FE801B6428F0D820688003F7D4E9
:100830002878DFF8608280074FF000093ED5DBF8AA
:100840000010584611F00C0F09D00068C0F3810069
:1008500002280BD18D48001F0068400206D4206892
:10086000800715D5E868012809D111E0E868B8B11A
:100870000120C8F80000FFF7FBFD064605E002E195
:10088000FFF7F6FD801B0228C0D820688007F7D547
:100890002068296920F0F80040EAC10020600DE0DE
:1008A000C8F80090FFF7E4FD064604E0FFF7E0FD1E
:1008B000801B02281FD820688007F7D428780007FB
:1008C00022D5724E744869696C3671B1012101609C
:1008D000FFF7CEFD074604E0FFF7CAFDC01B022864
:1008E00009D830688007F7D50EE0C0F80090FFF710
:1008F000BFFD074605E083E0FFF7BAFDC01B0228F5
:100900007ED830688007F7D42878400768D5DFF8AC
:100910007CA100270AF1380ADAF80000C0000BD4E5
:10092000DAF8001041F08051CAF80010DAF800003F
:10093000012700F080500090584E3068C00510D458
:10094000306840F480703060FFF792FD009005E061
:10095000FFF78EFD0099401A022851D83068C00573
:10096000F6D54A4EA868683601280FD005283068A9
:1009700010D020F001003060306820F004003060BA
:10098000A868B8B1FFF774FD00900FE0306840F040
:100990000100F4E740F004003060F7E7FFF768FD7E
:1009A0000099411A41F28830814264D8306880074A
:1009B000F4D50EE0FFF75CFD009007E0FFF758FD6F
:1009C0000099411A41F28830814254D8306880073A
:1009D000F4D42FB1DAF8001021F08051CAF80010D9
:1009E000A869C0B3DBF80010C1F3810102294AD025
:1009F0000228484607D0C8F86000FFF739FD00E03C
:100A000039E005463AE04746C8F86000FFF730FD98
:100A1000064604E0FFF72CFD801B02282BD8206837
:100A20008001F7D4D5E907010843A96A1C4A49089F
:100A300002EB01416A6A41EA8211084395F82C10E1
:100A400040EA01611148001F016001203866FFF78C
:100A50000FFD054605E014E0FFF70AFD401B0228E4
:100A600009D820688001F7D50BE000BFFFF700FD33
:100A7000401B022802D90320BDE8F88F20688001BE
:100A8000F4D40020F8E70120F6E70000083802401F
:100A90000038024000004742800E4742007000408C
:100AA0000000FFFF4FF0E0210428086903D020F088
:100AB00004000861704740F00400FAE7704710B581
:100AC000401EB0F1807F01D3012010BD4FF0E02423
:100AD00060610F21601700F05BF80020A061072023
:100AE0002061002010BD10B5FFF7E8FF10BDFEE744
:100AF000F0B5244887B00024016841F00801016086
:100B00000068214F00F008004FF480550590224600
:100B100029463846FFF7A6FC00950125CDE901548A
:100B2000694638460394FFF7C1FB6E030022314645
:100B30003846FFF797FC0096CDE9015469463846E0
:100B40000394FFF7B3FBAE03002231463846FFF7AC
:100B500089FC0096CDE90154694638460394FFF7B5
:100B6000A5FBEE03002231463846FFF77BFC0096DA
:100B7000CDE90154694638460394FFF797FB07B067
:100B8000F0BD000030380240000C0240FEE7704724
:100B90000907090E002806DA00F00F0000F1E02036
:100BA00080F8141D704700F1E02080F800147047B1
:100BB0007047704710B5FFF761FCBDE81040FFF7C4
:100BC00092BF000010B51F4892B00024016841F0A8
:100BD00080510160006800F0805011901A4801684F
:100BE00041F4804101600068069400F48040119057
:100BF0000220009001200390102004906846FFF727
:100C0000C3FD00B1FEE70F20CDE90C040E940F9454
:100C100000210CA81094FFF7E7FC00B1FEE7FFF7F6
:100C20007BFD4FF47A71B0FBF1F0FFF748FF042031
:100C3000FFF738FF00221146501EFFF7A3FC12B049
:100C400010BD0000403802400070004010480168AC
:100C500041F4700101600F48016841F00101016039
:100C60000C4A00210832116002680B4B1A400260E6
:100C7000031D0A4A1A60026822F4802202600548B5
:100C80000C30016002495806803908607047000046
:100C900088ED00E000380240FFFFF6FE103000242F
:100CA000FEE702E008C8121F08C1002AFAD1704707
:100CB0007047002001E001C1121F002AFBD17047DC
:100CC000FFF7E4FBFFF77EFFFFF712FF4FF48055BD
:100CD0000D4C6E00AF004FF400484FF47A7929466E
:100CE0002046FFF7BBFB31462046FFF7B7FB3946EE
:100CF0002046FFF7B3FB41462046FFF7AFFB4846CF
:100D0000FFF7C2FAEBE70000000C02400000000011
:100D10000000000001020304060708093C0D00085A
:100D20000000002010000000A20C00084C0D00087C
:100D30001000002000040000B20C000801000000B8
:0C0D400010000000000000000024F4007F
:040000050800018965
:00000001FF
